{
  "contractName": "EthSwap",
  "abi": [
    {
      "inputs": [
        {
          "internalType": "contract Token",
          "name": "_token",
          "type": "address"
        }
      ],
      "payable": false,
      "stateMutability": "nonpayable",
      "type": "constructor"
    },
    {
      "constant": true,
      "inputs": [],
      "name": "name",
      "outputs": [
        {
          "internalType": "string",
          "name": "",
          "type": "string"
        }
      ],
      "payable": false,
      "stateMutability": "view",
      "type": "function"
    },
    {
      "constant": true,
      "inputs": [],
      "name": "token",
      "outputs": [
        {
          "internalType": "contract Token",
          "name": "",
          "type": "address"
        }
      ],
      "payable": false,
      "stateMutability": "view",
      "type": "function"
    }
  ],
  "bytecode": "0x60806040526040518060400160405280600781526020017f45746853776170000000000000000000000000000000000000000000000000008152506000908051906020019061004f9291906100d7565b5034801561005c57600080fd5b5060405161038c38038061038c8339818101604052602081101561007f57600080fd5b810190808051906020019092919050505080600160006101000a81548173ffffffffffffffffffffffffffffffffffffffff021916908373ffffffffffffffffffffffffffffffffffffffff1602179055505061017c565b828054600181600116156101000203166002900490600052602060002090601f016020900481019282601f1061011857805160ff1916838001178555610146565b82800160010185558215610146579182015b8281111561014557825182559160200191906001019061012a565b5b5090506101539190610157565b5090565b61017991905b8082111561017557600081600090555060010161015d565b5090565b90565b6102018061018b6000396000f3fe608060405234801561001057600080fd5b50600436106100365760003560e01c806306fdde031461003b578063fc0c546a146100be575b600080fd5b610043610108565b6040518080602001828103825283818151815260200191508051906020019080838360005b83811015610083578082015181840152602081019050610068565b50505050905090810190601f1680156100b05780820380516001836020036101000a031916815260200191505b509250505060405180910390f35b6100c66101a6565b604051808273ffffffffffffffffffffffffffffffffffffffff1673ffffffffffffffffffffffffffffffffffffffff16815260200191505060405180910390f35b60008054600181600116156101000203166002900480601f01602080910402602001604051908101604052809291908181526020018280546001816001161561010002031660029004801561019e5780601f106101735761010080835404028352916020019161019e565b820191906000526020600020905b81548152906001019060200180831161018157829003601f168201915b505050505081565b600160009054906101000a900473ffffffffffffffffffffffffffffffffffffffff168156fea265627a7a723158200142459c3bf1187eb97ebcb4420c9769320c156de6565747b12480a5866f1e1f64736f6c63430005100032",
  "source": "pragma solidity >=0.4.21 <0.6.0;\n\nimport \"./Token.sol\";\n\ncontract EthSwap {\n  // This is a 'state' var because the data within this var is actually stored on the blockchain\n  string public name = \"EthSwap\";\n  // Create a variable that represents a Token contract\n    // We will be able to call the token methods on this variable\n      // For example when we swap tokens within the app via the EthSwap contract interface, we can call the transfer() function that is located in the Token interface FROM the EthSwap interface\n  Token public token;\n\n  // We have to tell EthSwap where the token contract is on the blockchain so we pass in the contract to interact with the address\n    // We pass it in as a Contract Type \"MyContract _name\"\n  constructor(Token _token) public {\n    // In the same way that the contract name is declared as a state var and this stored on the blockchain and easily accessed - we want to do the same with the token contract here\n    // However, the _token var is just a function argument that we passed in as a local var - making it unaccessible outside of the function scope and NOT stored on the blockchain\n    // In order to have it stored on the blockchain we must store it as a state variable\n        // 1. First by creating the var above the constructor\n        // 2. Then assigning the function argument to it\n        // 3. Then because we added an arg to the constructor we have to update migrations and add the Token contract address to ethSwap deployer\n    token = _token;\n  }\n\n\n}",
  "sourcePath": "/Users/steveboyer/Code/Apps/Tutorials/eth-swap/src/contracts/EthSwap.sol",
  "compiler": {
    "name": "solc",
    "version": "0.5.16+commit.9c3226ce.Emscripten.clang"
  },
  "schemaVersion": "3.4.5",
  "updatedAt": "2022-07-11T16:06:41.481Z",
  "networkType": "ethereum",
  "devdoc": {
    "methods": {}
  },
  "userdoc": {
    "methods": {}
  }
}